:020000040800F2
:1000000060070020D5010008810A0008B305000838
:100010007D0A000889040008EB12000800000000B7
:10002000000000000000000000000000510F000868
:100030008D04000800000000390E0008651000085B
:10004000EF010008EF010008EF010008EF010008D0
:10005000EF010008EF010008EF010008EF010008C0
:10006000EF010008EF010008EF010008EF010008B0
:10007000EF010008EF010008EF010008EF010008A0
:10008000EF010008EF010008EF010008EF01000890
:10009000EF010008EF010008EF010008EF01000880
:1000A000EF010008EF010008EF010008EF01000870
:1000B000EF010008EF010008EF010008EF01000860
:1000C000EF010008EF010008EF010008EF01000850
:1000D000EF010008C9100008EF010008EF01000857
:1000E000EF010008EF010008EF010008EF01000830
:1000F000EF010008EF010008EF010008EF01000820
:10010000EF010008EF010008EF010008EF0100080F
:10011000EF010008EF010008EF010008EF010008FF
:10012000EF010008EF010008EF010008EF010008EF
:1001300000F002F800F03FF80AA090E8000C8244BA
:100140008344AAF10107DA4501D100F034F8AFF297
:10015000090EBAE80F0013F0010F18BFFB1A43F0A5
:1001600001031847101A0000301A0000103A24BF8B
:1001700078C878C1FAD8520724BF30C830C144BF0C
:1001800004680C607047000000230024002500264E
:10019000103A28BF78C1FBD8520728BF30C148BFEA
:1001A0000B607047642900F07780002070471FB50E
:1001B0001FBD10B510BD00F037F91146FFF7F7FF6E
:1001C00001F0EEF800F055F903B4FFF7F2FF03BCBD
:1001D00001F08DF80948804709480047FEE7FEE72F
:1001E000FEE7FEE7FEE7FEE7FEE7FEE7FEE7FEE7E7
:1001F00004480549054A064B70470000691000088D
:100200003101000860010020600700206003002029
:1002100060030020704700000FB4044910B503AA22
:10022000029800F0D3F810BC5DF814FB2C000020FD
:100230002DE9F0410E460446002020622046E16888
:10024000884730B3252805D0D4E901219047206A9A
:10025000401CF2E7E168204600278847050018D0D7
:10026000A5F14100192802D820354FF40067324625
:10027000294620462760FFF795FF40B1012804D0AA
:10028000F61D26F007060836D8E7361DD6E72846BD
:10029000DAE7206ABDE8F0812DE9F0410646002446
:1002A00010687529314616A510D0AFF300800028DC
:1002B00002DA404213A507E031688A0701D512A58A
:1002C00002E0490704D511A5012401E0AFF3008045
:1002D00000210A2206F1240709E0B0FBF2FCB0FB82
:1002E000F2F302FB1C00303078541846491C0028F9
:1002F000F3D123462A463046BDE8F04100F00CB861
:10030000000000002D0000002B0000002000000075
:1003100070477047704770472DE9F0470D46994682
:100320009246044600F124080168880604D5E06975
:1003300021F01001216000E00120A84201DD471BEF
:1003400000E00027A1697A1902EB0900081AA061F0
:100350002078C00602D42046AFF30080002608E0D3
:10036000D4E901211AF806009047206A401C761C47
:1003700020624E45F4DB2078C0060AD52046AFF354
:10038000008006E0D4E9012130209047206A401C1B
:100390002062381EA7F10107F4DC07E0D4E901214F
:1003A00018F805009047206A401C2062281EA5F11D
:1003B0000105F3DC2046AFF300802078000602D56B
:1003C0000220BDE8F0870120FBE70000074B70B575
:1003D0000D467B4400F011F80446284600F020F852
:1003E00010B14FF0FF3070BD204670BDAF0F000060
:1003F00001694A1C02610878704700B58FB0CDE9E9
:1004000001310021059105497944CDE903101146D8
:100410006846FFF70DFF0FB000BD0000E5FFFFFFCE
:10042000007B00F080007047754600F029F8AE466A
:1004300005006946534620F00700854618B020B5F0
:10044000FFF7D6FEBDE820404FF000064FF0000752
:100450004FF000084FF0000B21F00701AC46ACE86C
:10046000C009ACE8C009ACE8C009ACE8C0098D46D9
:1004700070470446AFF300802046FFF7A5FE00005A
:1004800000487047FC00002000BFFEE770472DE9E0
:10049000F04102460025002600200023002400270A
:1004A00091F803C00CF00F0591F803C00CF0100C8C
:1004B000BCF1000F03D091F802C04CEA050591F899
:1004C00000C0BCF1000F31D0146800202BE04FF0C9
:1004D000010C0CFA00F3B1F800C00CEA03069E42CE
:1004E00020D183004FF00F0C0CFA03F7BC4305FA40
:1004F00003FC4CEA040491F803C0BCF1280F06D1B8
:100500004FF0010C0CFA00FCC2F814C00AE091F89C
:1005100003C0BCF1480F05D14FF0010C0CFA00FCF0
:10052000C2F810C0401C0828D1D31460B1F800C034
:10053000BCF1FF0F34DD546800202EE000F1080C00
:100540004FF0010808FA0CF3B1F800C00CEA0306FA
:100550009E4221D183004FF00F0C0CFA03F7BC43ED
:1005600005FA03FC4CEA040491F803C0BCF1280F1F
:1005700005D100F1080C08FA0CF8C2F8148091F8C3
:1005800003C0BCF1480F07D100F1080C4FF001087F
:1005900008FA0CF8C2F81080401C0828CED354602A
:1005A000BDE8F081016170470AB1016100E041617D
:1005B000704700BFFEE721B1028842F480620280EA
:1005C00004E002884FF6FF331A400280704770B58E
:1005D00002460024002500230020958A138B1B046B
:1005E00045EA030626F07F4404EA01068E4201D163
:1005F000012000E0002070BD21B1028842F001021C
:10060000028004E002884FF6FE731A4002807047B1
:1006100021B1028842F48072028004E002884FF621
:10062000FF631A400280704721B1028842F40072D1
:10063000028004E002884FF6FF531A4002807047A0
:100640000CB50246002000230193009300920B0F8B
:10065000019321F07F41019B1BB1009B1433009358
:1006600003E0090C009B18330093009B1B680B40B0
:100670000BB1012000E000200CBD00002DE9F0438B
:1006800085B004460D460026B1460427DFF8CC802D
:10069000A6884FF6C0700640684600F0EFFBDDF814
:1006A00008802F48B8FBF0F01FFA80F946EA0906E7
:1006B000A68020884FF6FE71084020800026294938
:1006C000286888420CD828684000B8FBF0F087B250
:1006D000042F00DA04273E4309F10100208427E0BB
:1006E000E8884BF6FF71884206D1286800EB40008D
:1006F000B8FBF0F087B209E0286800EBC00101EB1D
:100700000010B8FBF0F087B247F48047C7F30B0046
:1007100008B947F0010747F4004006434FF49670CC
:1007200009FB00F04FF47A7190FBF1F0401C20843B
:10073000A683208840F00100208026884FF6F530FF
:100740000640A8886989084306432680A889298924
:100750000843208105B0BDE8F083000000127A0054
:1007600040420F00A08601000146088AC0B27047CF
:1007700012B141F0010102E04FF6FE73194001820F
:10078000704701827047000000B585B001218805DF
:1007900000F054FB0121082000F060FB4FF44060A2
:1007A000ADF810001C208DF8130003208DF8120006
:1007B00004A90F48FFF76BFE0020ADF804004FF4CA
:1007C0008040ADF80600ADF80C000011ADF80A004D
:1007D00008480090FF20ADF8080069460648FFF77A
:1007E0004DFF01210448FFF707FF05B000BD0000E1
:1007F000000C0140801A06000058004008B5012195
:100800000C2000F02BFBE020ADF8000010208DF84C
:10081000030003208DF8020069460A48FFF737FEFF
:10082000E0210848FFF7BEFE4FF48070ADF80000ED
:1008300069460548FFF72BFE4FF480710248FFF729
:10084000B1FE08BD000C0140000801402DE9F05F39
:1008500006460F4690469946DDE90AAB3B2000F07C
:1008600067F804463C2000F063F8054645EA04209A
:1008700000B230803D2000F05BF804463E2000F0DE
:1008800057F8054645EA042000B238803F2000F0C2
:100890004FF80446402000F04BF8054645EA042096
:1008A00000B2A8F80000432000F042F804464420BB
:1008B00000F03EF8054645EA042000B2A9F8000021
:1008C000452000F035F80446462000F031F8054692
:1008D00045EA042000B2AAF80000472000F028F8FA
:1008E0000446482000F024F8054645EA042000B2FA
:1008F000ABF80000BDE8F09F10B5FFF745FF012100
:100900006B2000F07BF800216C2000F077F81321B9
:10091000192000F073F804211A2000F06FF8182154
:100920001B2000F06BF810211C2000F067F810BDB0
:1009300070B5044600BF4FF400312D48FFF780FE2C
:100940000028F8D101212A48FFF762FE00BF29499B
:100950002748FFF73CFE0128F9D10022D021244886
:10096000FFF706FF00BF24492148FFF730FE0128AA
:10097000F9D121461E48FFF704FF00BF1E49891E1A
:100980001B48FFF724FE0128F8D101211848FFF782
:100990003FFE00BF17491648FFF719FE0128F9D19D
:1009A0000122D1211248FFF7E3FE00BF1149491C83
:1009B0000F48FFF70CFE0128F8D100210C48FFF783
:1009C000FAFD01210A48FFF72FFE00BF09493F3118
:1009D0000748FFF7FCFD0128F8D10548FFF7C4FEE2
:1009E000054601210248FFF7E6FD284670BD0000DC
:1009F00000580040010003008200070070B5044663
:100A00000D4601211A48FFF703FE00BF1949184897
:100A1000FFF7DDFD0128F9D10022D0211448FFF7AE
:100A2000A7FE00BF14491248FFF7D1FD0128F9D1F4
:100A300021460F48FFF7A5FE00BF0F49891E0C484D
:100A4000FFF7C5FD0128F8D129460948FFF799FEAF
:100A500000BF0949891C0648FFF7B9FD0128F8D1F4
:100A600001210348FFF7E0FD052000F065FC70BDA3
:100A700000580040010003008200070000BFFEE7AD
:100A80007047000070B5002100230F22C47804B322
:100A9000154C246804F4E064C4F5E064210AC1F153
:100AA0000403CA40447804FA03F1847814402143D3
:100AB00009010E4C0678A155047804F01F050124A5
:100AC000AC4005786D11AD0005F1E025C5F8004199
:100AD00009E0047804F01F050124AC40044D0678B9
:100AE000761145F8264070BD0CED00E000E400E012
:100AF00080E100E002490143024A116070470000B2
:100B00000000FA050CED00E070B500240EE00021B5
:100B1000204600F0DDF8002504E0002000F072F926
:100B2000681CC5B2802DF8DB601CC4B2082CEEDB5B
:100B300070BD70B5002406E0002500E06D1CB5F521
:100B40007A7FFBD3641CB4F57A7FF5D300F052F8BA
:100B5000AE2000F03DF9D52000F03AF9802000F0F9
:100B600037F9A82000F034F93F2000F031F9D32004
:100B700000F02EF9002000F02BF9402000F028F9B9
:100B8000A12000F025F9C82000F022F9DA2000F0B9
:100B90001FF9122000F01CF9812000F019F9CF2074
:100BA00000F016F9D92000F013F9F12000F010F947
:100BB000DB2000F00DF9302000F00AF9A42000F04D
:100BC00007F9A62000F004F98D2000F001F91420A7
:100BD00000F0FEF8AF2000F0FBF8FFF795FF70BDC6
:100BE00010B50246012000E050430B00A1F10101C5
:100BF000FAD110BD08B50121042000F02FF9012120
:100C0000102000F02BF910208DF8030003208DF840
:100C100002002020ADF8000069461C48FFF737FCB1
:100C20008020ADF8000069461848FFF730FC4020EE
:100C3000ADF8000069461548FFF729FC4020ADF8E3
:100C4000000069461248FFF722FC1020ADF80000B2
:100C500069460E48FFF71BFC012220210B48FFF7D5
:100C6000A3FC012280210948FFF79EFC01224021BC
:100C70000648FFF799FC012240210548FFF794FC44
:100C8000012210210148FFF78FFC08BD0008014038
:100C90000010014070B50546002413E00022202119
:100CA0000A48FFF781FC8020204100EA05028021EC
:100CB0000648FFF779FC012220210448FFF774FC65
:100CC000601CC4B2082CE9DB70BD000000080140C4
:100CD00070B505460C4645F0B00000F079F81021DB
:100CE00041EA141000F074F804F00F0000F070F8FE
:100CF00070BD00002DE9F04105460E461746721EF4
:100D0000D206110E6A1E5206100EFFF7E1FF0024F4
:100D100009E0A7F12001134A02EB0111085D00F080
:100D200071F8601CC4B2082CF3DB721ED206110EDF
:100D30006A1E012303EB4202D0B2FFF7C9FF002471
:100D40000BE0A7F12001074A02EB011204F10801B0
:100D5000505C00F057F8601CC4B2082CF1DBBDE811
:100D6000F0810000841500082DE9F047814688468F
:100D700015461E46002D06DB2B2241464846FFF74E
:100D8000B9FF2F4605E02D2241464846FFF7B2FF46
:100D90006F42002417E0301B411E0A20FFF720FF9E
:100DA000B7FBF0F00A21B0FBF1F201FB120000F1F9
:100DB000300A08EB0400401CC1B252464846FFF717
:100DC00099FF601CC4B2B442E5DBBDE8F0870000C7
:100DD00010B50446002210210848FFF7E5FB002269
:100DE00040210748FFF7E0FB2046FFF753FF0122B1
:100DF00010210248FFF7D8FB10BD00000008014099
:100E00000010014010B50446002210210848FFF7E9
:100E1000CBFB012240210748FFF7C6FB2046FFF726
:100E200039FF012210210248FFF7BEFB10BD000070
:100E300000080140001001407047000029B1064A37
:100E4000D2690243044BDA6104E0034AD269824367
:100E5000014BDA61704700000010024029B1064AD8
:100E600092690243044B9A6104E0034A9269824307
:100E7000014B9A61704700000010024030B500211C
:100E80000022002400232D4D6D6805F00C0121B1D6
:100E9000042905D0082923D105E0294D056022E069
:100EA000274D05601FE0254D6D6805F47012234D38
:100EB0006D6805F48034022505EB92421CB9214D82
:100EC000554305600BE01D4D6D6805F400351DB1FF
:100ED0001C4D5543056002E0194D5543056002E085
:100EE000174D056000BF00BF144D6D6805F0F0019F
:100EF0000909154D6B5C0568DD4045600F4D6D6857
:100F000005F4E061090A104D6B5C4568DD408560C1
:100F10000A4D6D6805F46051C90A0B4D6B5C45685C
:100F2000DD40C560054D6D6805F44041890B074DF6
:100F30006B5CC568B5FBF3F5056130BD0010024080
:100F400000127A0000093D00140000202400002057
:100F5000704710B500F002F810BD00000CB500207D
:100F6000019000903348006840F4803031490860B7
:100F700000BF3048006800F4003000900198401C29
:100F80000190009818B90198B0F5A06FF1D12948E7
:100F9000006800F4003010B10120009001E0002052
:100FA00000900098012843D12348006840F01000C9
:100FB000214908600846006820F0030008600846E0
:100FC000006840F0020008601A484068194948600B
:100FD0000846406848600846406840F480604860C1
:100FE0000846406820F47C1048600846406840F499
:100FF000E81048600846006840F08070086000BF54
:101000000C48006800F000700028F9D009484068DA
:1010100020F00300074948600846406840F002009D
:10102000486000BF0348406800F00C000828F9D170
:101030000CBD00000010024000200240042808D12E
:101040004FF0E021096941F004014FF0E022116105
:1010500007E04FF0E021096921F004014FF0E022A0
:10106000116170477047000010B51348006840F0E8
:1010700001001149086008464068104908400E49BF
:101080004860084600680E4908400B490860084659
:10109000006820F4802008600846406820F4FE00C4
:1010A00048604FF41F008860FFF753FF4FF0006067
:1010B0000449086010BD0000001002400000FFF865
:1010C000FFFFF6FE08ED00E010B540F225511D4887
:1010D00000F04AF810B31B4800F002F9C4B21A48F5
:1010E000008800F40040C8B91748008800F4804028
:1010F00060B10A2C03D000201349088020E0124878
:10110000008840F400401049088019E00D2C06D1F9
:101110000D48008840F480400B49088010E00A48E0
:101120000088C0F30D0009490C5407480088401C92
:101130000549088008460088C72801DD002008808E
:1011400010BD0000003801403000002034000020B5
:1011500021B1828942F40052828104E082894DF6F5
:10116000FF731A408281704770B502460024002345
:101170000025002040F66A16B14200D100BFC1F33D
:10118000421501F01F03012606FA03F3012D02D1D7
:101190009689334006E0022D02D1168A334001E0E1
:1011A000968A33400C12012606FA04F4168834405D
:1011B00013B10CB1012000E0002070BDF0B5034672
:1011C000002400260025002040F66A17B94200D10D
:1011D00000BF1846C1F3421401F01F06012707FAA9
:1011E00006F5012C01D10C3004E0022C01D11030A5
:1011F00000E014301AB107682F43076002E0076867
:10120000AF430760F0BD00002DE9F04786B005460A
:101210000E460024A24600BFA1460027B08900B1B7
:1012200000BF2F462C8A4CF6FF700440F088044320
:101230002C82AC894EF6F3100440B0883189084303
:10124000718908430443AC81AC8A4FF6FF400440E7
:10125000B0890443AC8201A8FFF710FE1F48874203
:1012600002D1DDF810A001E0DDF80CA0A88900F49F
:10127000004040B10AEBCA0000EB0A103168490097
:10128000B0FBF1F807E00AEBCA0000EB0A10316886
:101290008900B0FBF1F86420B8FBF0F004012009EC
:1012A000642101FB1089A88900F4004040B132207C
:1012B00000EBC900B0FBF1F000F00700044308E0C8
:1012C000322000EB09106421B0FBF1F000F00F00B8
:1012D00004432C8106B0BDE8F087000000380140CF
:1012E00001468888C0F30800704700BFFEE700BFD2
:1012F0007047000010B56FF00400FFF79FFE0A482A
:1013000000680A49B0FBF1F0094908700846007806
:1013100000EB4001C1EBC0104FF6FF7101EAC000C5
:101320000449088010BD00000000002000127A006F
:10133000280000202A0000200146114A12884A4352
:101340004FF0E0235A6100229A611A46126942F076
:1013500001021A6100BF4FF0E022106900F00102A3
:101360001AB100F48032002AF5D04FF0E022126961
:1013700022F001024FF0E0231A6100229A617047C7
:101380002A00002000BF054A128802F04002002A0D
:10139000F9D0C2B2014B1B1D1A80704700380140C2
:1013A00088B0FFF7C6FB4FF4A060FFF7A3FB4FF434
:1013B000165000F097F8FFF79DFFFFF71FFA32482D
:1013C000006808B9012000E000202F490860FFF7FD
:1013D00093FA58E002A803A904AB05AACDE90010CE
:1013E00006A907A8FFF732FA782201210846FFF77D
:1013F00081FC792201210220FFF77CFC7A22012165
:101400000320FFF777FC0423BDF91C2003210120F2
:10141000FFF7AAFC0423BDF9182003210220FFF7DF
:10142000A3FC0423BDF9142003210846FFF79CFC0C
:101430000423BDF9102009210120FFF795FC0423A6
:10144000BDF90C2009210220FFF78EFC0423BDF911
:10145000082009210320FFF787FCBDF91430BDF9EE
:101460001820BDF91C1009A0FEF7D6FEBDF9083002
:10147000BDF90C20BDF910100FA0FEF7CDFE4FF402
:101480007A70FFF759FFA5E79C812142BCD3CBD9E5
:10149000B6C8BCC4B4E6C6F7B5C478797AD6E1CA92
:1014A000FDD6B5CEAAA3BA0D0A2564A3AC2564A3C4
:1014B000AC25640D0A000000CDD3C2DDD2C7BCC488
:1014C000B4E6C6F7B5C478797AD6E1CAFDD6B5CE0A
:1014D000AAA3BA0D0A2564A3AC2564A3AC25640DA8
:1014E0000A00000010B586B00446012144F2040051
:1014F000FFF7B4FC4FF40070ADF8140003208DF832
:10150000160018208DF8170005A91C48FEF7BFFF2C
:101510004FF48060ADF8140004208DF8170005A981
:101520001648FEF7B4FF25208DF8000003208DF843
:1015300001008DF8020001208DF803006846FFF7D6
:10154000A1FA01940020ADF80800ADF80A00ADF84A
:101550000C00ADF810000C20ADF80E0001A90848F1
:10156000FFF752FE012240F225510548FFF726FE03
:1015700001210348FFF7ECFD06B010BD0008014053
:1015800000380140000000000000000000000000E2
:1015900000000000000000F8000000000000003320
:1015A0003000000000100C06100C060000000000C7
:1015B0000000000040C07840C0784000043F0404B0
:1015C0003F040400007088FC08300000001820FF71
:1015D000211E0000F008F000E018000000211C03AC
:1015E0001E211E0000F00888700000001E21232428
:1015F0001927211010160E00000000000000000046
:1016000000000000000000E01804020000000007D5
:101610001820400000020418E000000000402018DC
:1016200007000000404080F0804040000202010FAF
:1016300001020200000000F0000000000101011F93
:1016400001010100000000000000000080B07000F7
:101650000000000000000000000000000001010187
:101660000101010100000000000000000030300016
:1016700000000000000000008060180400601806F0
:101680000100000000E010080810E000000F10202A
:1016900020100F00001010F8000000000020203F74
:1016A00020200000007008080888700000302824FE
:1016B000222130000030088888483000001820209F
:1016C00020110E000000C02010F8000000070424C4
:1016D000243F240000F80888880808000019212009
:1016E00020110E0000E0108888180000000F112063
:1016F00020110E0000380808C83808000000003F1C
:10170000000000000070880808887000001C22217A
:1017100021221C0000E010080810E0000000312227
:1017200022110F00000000C0C000000000000030C7
:101730003000000000000080000000000000806019
:10174000000000000000804020100800000102049A
:101750000810200040404040404040000404040481
:10176000040404000008102040800000002010083D
:1017700004020100007048080808F0000000003072
:1017800036010000C030C828E810E0000718272400
:1017900023140B000000C038E0000000203C2302AE
:1017A0000227382008F8888888700000203F202011
:1017B00020110E00C0300808080838000718202043
:1017C0002010080008F808080810E000203F20203A
:1017D00020100F0008F88888E8081000203F20201B
:1017E0002320180008F88888E8081000203F20000F
:1017F00003000000C0300808083800000718202047
:10180000221E020008F808000008F808203F210105
:1018100001213F20000808F8080800000020203FB0
:101820002020000000000808F8080800C080808020
:101830007F00000008F888C028180800203F200119
:101840002638200008F8080000000000203F202073
:101850002020300008F8F800F8F80800203F003F8A
:10186000003F200008F830C00008F808203F2000A2
:1018700007183F00E01008080810E0000F102020B3
:1018800020100F0008F808080808F000203F210188
:1018900001010000E01008080810E0000F182424DF
:1018A00038504F0008F8888888887000203F200052
:1018B000030C302000708808080838000038202108
:1018C00021221C00180808F8080818000000203F12
:1018D0002000000008F808000008F808001F202079
:1018E00020201F000878880000C83808000007384A
:1018F0000E010000F80800F80008F800033C07009B
:10190000073C0300081868808068180820302C0302
:10191000032C30200838C800C83808000000203FD9
:101920002000000010080808C838080020382621C8
:1019300020201800000000FE020202000000007FCC
:1019400040404000000C30C00000000000000001DA
:101950000638C00000020202FE00000000404040C5
:101960007F000000000004020202040000000000EA
:101970000000000000000000000000008080808067
:10198000808080800002020400000000000000004F
:1019900000000000000080808080000000192422E8
:1019A00022223F2008F8008080000000003F112024
:1019B00020110E000000008080800000000E112029
:1019C00020201100000000808088F800000E112007
:1019D00020103F200000808080800000001F222215
:1019E00022221300008080F0888888180020203F81
:1019F000202000000000808080808000006B949494
:101A00009493600008F8008080800000203F21004F
:101A100000203F2000809898000000000020203F18
:101A200020200000000000809898000000C0808006
:101A3000807F000008F8000080808000203F2402A2
:101A40002D302000000808F8000000000020203F92
:101A5000202000008080808080808000203F200047
:101A60003F20003F8080008080800000203F2100D8
:101A700000203F200000808080800000001F202088
:101A800020201F00808000808000000080FFA120B7
:101A900020110E000000008080808000000E1120C8
:101AA00020A0FF80808080008080800020203F2157
:101AB000200001000000808080808000003324240A
:101AC00024241900008080E0808000000000001FB6
:101AD000202000008080000000808000001F202067
:101AE00020103F20808080000080808000010E3028
:101AF0000806010080800080008080800F300C0389
:101B00000C300F0000808000808080000020312E8B
:101B10000E312000808080000080808080818E7067
:101B20001806010000808080808080000021302C19
:101B30002221300000000000807C02020000000032
:101B4000003F404000000000FF00000000000000D7
:101B5000FF0000000002027C800000000040403FC7
:101B60000000000000060101020204040000000061
:101B700000000000941B000800000020340000005A
:101B80006C010008C81B0008340000202C0700006E
:101B90008801000800A24A040000000000000000C4
:101BA0000102030406070809000000000102030403
:101BB00001020304060708090204060800000000E9
:081BC00000000000000000001D
:0400000508000131BD
:00000001FF
